:100000000C9434000C946B000C9451000C9451002F
:100010000C9451000C9451000C9451000C9451001C
:100020000C9451000C9451000C9451000C9451000C
:100030000C9451000C9451000C9451000C945100FC
:100040000C9451000C9451000C9451000C945100EC
:100050000C9451000C9451000C9451000C945100DC
:100060000C9451000C94510011241FBECFEFD8E026
:10007000DEBFCDBF11E0A6E0B1E001C01D92A83106
:10008000B107E1F711E0A0E0B1E0E4E1F9E002C07E
:1000900005900D92A630B107D9F70E94ED020C949D
:1000A00088040C9400008FE190E0909311018093FC
:1000B00010018EE390E00E945503FC01909307012C
:1000C0008093060189E390E3918380838AE390E340
:1000D0009383828308951F920F920FB60F9211247B
:1000E0002F933F938F939F93EF93FF9383B190E070
:1000F00081709070909309018093080180910801AC
:10010000909109018130910529F58091120190911A
:1001100013010097F9F480910A0190910B0120914D
:100120000E0130910F01880F991FE0910C01F091A1
:100130000D01E80FF91F3183208310920F011092F7
:100140000E0180910A0190910B01019690930B0191
:1001500080930A0180910E0190910F010196909376
:100160000F0180930E0180910801909109019093F5
:10017000130180931201FF91EF919F918F913F9115
:100180002F910F900FBE0F901F9018959B01AC01FF
:1001900080E090E0DC0104C000000196A11DB11DCB
:1001A00082179307A407B507B9F708951092C50001
:1001B00089E18093C40088E18093C1008EE0809340
:1001C000C20008952FEF8F3F920769F48091C0001D
:1001D00085FFFCCF8DE08093C6008091C00085FF35
:1001E000FCCF8AE00AC08A30910530F42091C0002B
:1001F00025FFFCCF805D01C085E48093C600089593
:10020000FC0180AD91AD009719F420E030E002C010
:1002100020E030E882AD93AD009711F02050304CD3
:1002200084AD95AD009711F02050304E86AD97AD5E
:10023000009711F02050304FDF01A05CBF4F8D912F
:100240009C911197009711F02050384FDF01AE5B61
:10025000BF4F8D919C911197009711F020503C4F0A
:10026000DF01AC5BBF4F8D919C911197009711F00E
:1002700020503E4FDF01AA5BBF4F8D919C9111979B
:10028000009711F020503F4FDF01A85BBF4F8D91C9
:100290009C911197009711F020583F4FDF01A65B0A
:1002A000BF4F8D919C911197009711F0205C3F4FAB
:1002B000DF01A45BBF4F8D919C911197009711F0C6
:1002C000205E3F4FDF01A25BBF4F8D919C91119744
:1002D000009711F0205F3F4FDF01A05BBF4F8D9172
:1002E0009C911197009711F0285F3F4FDF01AE5AA4
:1002F000BF4F8D919C911197009711F02C5F3F4F4C
:10030000DF01AC5ABF4F8D919C911197009711F06E
:100310002E5F3F4FEA5AFF4F80819181009711F085
:100320002F5F3F4FC9010895409110015091110175
:10033000E0910601F091070120E030E007C06191F3
:1003400071918617970741F02F5F3F4F24173507AC
:10035000B4F320E030E002C021E030E0C9010895AC
:100360006F927F928F929F92AF92BF92CF92DF92C5
:10037000EF92FF920F931F93DF93CF93CDB7DEB72A
:10038000CE50D1400FB6F894DEBF0FBECDBFFE01F8
:10039000E55AFF4F9E01215F3E4FDF0182E090E072
:1003A0008D939D93A217B307D9F77E010894E11CA2
:1003B000F11CBBE58B2E912C8C0E9D1ED70182E08B
:1003C00090E08D939D93A815B905D9F7A0910C01E4
:1003D000B0910D0140E050E080E090E060E070E01E
:1003E00001C0A9012D913D912417350711F4019603
:1003F00008C08F3091051CF04130510549F081E073
:1004000090E06F5F7F4F43E06438740751F702C09C
:1004100021E030E02C9AAB01440F551F60900C0195
:1004200070900D01640E751E40E050E00BE5C02E8B
:10043000D12CCC0EDD1E41C0D301AD90BD903D014D
:10044000A216B30611F4019635C08C010450104079
:100450000530110560F4CA01880F991F8C0D9D1D90
:10046000DC0111963C932E934F5F5F4F21C08C01AE
:100470000950104006301105A8F4CA01880F991FD1
:100480008C0D9D1DDC012D933C93CA010196880FB4
:10049000991F8C0D9D1DDC0111963C932E934E5F90
:1004A0005F4F06C08F3091051CF02115310551F0CA
:1004B00081E090E06F5F7F4F9501B3E064387B0788
:1004C0000CF4BACF9F0120553F4FDF018D919D91D4
:1004D0008230910509F46BC0A217B307B9F7D701B1
:1004E000808191818130910551F442815381411580
:1004F000510509F05CC011969C938E930CC0009737
:1005000009F055C0828193818130910509F04FC077
:1005100011961C921E9234961296E217F30701F779
:10052000F701819191917F010E94E200E814F904A2
:10053000B9F78FEF9FEF0E94E200CE0101960E9473
:1005400000010E949401009759F12A9A81ED94E2EA
:10055000909389008093880080E090E0DC011F9BED
:100560000BC00196A11DB11D803AF5E29F07F6E28E
:10057000AF07F0E0BF0799F788E293E29093890014
:100580008093880080E291EAA7E0B0E00000019744
:10059000A109B109D9F7109289001092880001C011
:1005A0002B9A68E873E180E090E00E94C600C25F89
:1005B000DE4F0FB6F894DEBF0FBECDBFCF91DF91F7
:1005C0001F910F91FF90EF90DF90CF90BF90AF9071
:1005D0009F908F907F906F9008950E9453001AB85B
:1005E0008EE184B980E197E2909387008093860042
:1005F00080EC8093800082E18093810088E293E226
:10060000909389008093880080E291EAA7E0B0E0AF
:1006100000000197A109B109D9F710928900109241
:10062000880010920F0110920E0184E893E00E945E
:10063000550380930C0190930D0110920B011092C1
:100640000A01E82FF92FCF01885F984F119211927C
:10065000E817F907D9F70E94D600789483E08093D1
:10066000690081E08DBB789480910A0190910B0123
:1006700023E084389207C4F3F89485B1837E85B96A
:100680000E94B00110920F0110920E0110920B0106
:1006900010920A01E0910C01F0910D0184E893E0C1
:1006A000119211920197E1F7DECFCF93DF93823061
:1006B000910510F482E090E0E0911601F0911701AD
:1006C00040E050E020E030E026C060817181681792
:1006D0007907E0F06817790781F482819381211509
:1006E000310531F0D90113969C938E9312972BC04C
:1006F000909317018093160126C04115510519F0FA
:100700006417750718F4AB01E901DF019F017281DD
:100710006381E72FF62F3097C1F64115510501F19E
:10072000481B590B4430510580F412968D919C91D1
:100730001397209719F09B838A8304C09093170125
:1007400080931601FD01329646C0FD01E40FF51FAE
:10075000819391934250504011965C934E933BC0CD
:1007600020911401309115012115310541F420919A
:10077000020130910301309315012093140120915F
:100780000401309105012115310541F42DB73EB723
:100790004091000150910101241B350BE09114019F
:1007A000F0911501E217F307A0F42E1B3F0B281759
:1007B000390778F0AC014E5F5F4F2417350748F0DA
:1007C0004E0F5F1F50931501409314018193919335
:1007D00002C0E0E0F0E0CF01DF91CF910895CF9328
:1007E000DF93009709F491C0FC01329713821282C3
:1007F00060911601709117016115710581F42081D6
:100800003181280F391F80911401909115018217B1
:10081000930799F5F0931501E093140176C0DB017D
:1008200080E090E002C0CD01D901AE17BF0748F4C7
:1008300012962D913C91139721153105A1F7CD0109
:1008400021C0B383A283EF01499159919E01240FE6
:10085000351FA217B30779F42D913C911197240FFE
:10086000351F2E5F3F4F3183208312962D913C918F
:10087000139733832283009729F4F0931701E093B1
:10088000160143C0DC011396FC93EE9312974D9131
:100890005D91A40FB51FEA17FB0769F42081318130
:1008A000240F351F2E5F3F4FEC01398328832281AF
:1008B00033813B832A83E0E0F0E002C0FB01BC010E
:1008C000DB0112968D919C9113970097B9F79B01CC
:1008D0002E5F3F4F8D919C911197820F931F4091F6
:1008E0001401509115014817590779F4309729F4EC
:1008F000109217011092160102C013821282225028
:1009000030403093150120931401DF91CF91089569
:04091000F894FFCF89
:06091400200018010000A4
:00000001FF
