:100000000C9434000C9453000C9451000C94510047
:100010000C9451000C9451000C9451000C9451001C
:100020000C9451000C9451000C9451000C9451000C
:100030000C9451000C9451000C9451000C945100FC
:100040000C9451000C9451000C9451000C945100EC
:100050000C9451000C9451000C9451000C945100DC
:100060000C9451000C94510011241FBECFEFD8E026
:10007000DEBFCDBF11E0A6E0B1E001C01D92A83106
:10008000B107E1F711E0A0E0B1E0E6EAF8E002C074
:1000900005900D92A630B107D9F70E94DB020C94AF
:1000A00051040C9400001F920F920FB60F9211246E
:1000B0002F933F938F939F93EF93FF9383B190E0A0
:1000C00081709070909309018093080180910801DC
:1000D00090910901019729F58091120190911301E6
:1000E000892BF9F480910A0190910B0120910E0166
:1000F00030910F01880F991FE0910C01F0910D01D3
:10010000E80FF91F3183208310920F0110920E0126
:1001100080910A0190910B01019690930B018093BD
:100120000A0180910E0190910F01019690930F01A9
:1001300080930E0180910801909109019093130121
:1001400080931201FF91EF919F918F913F912F9199
:100150000F900FBE0F901F90189520E030E040E008
:1001600050E005C000002F5F3F4F4F4F5F4F2617F5
:10017000370748075907B0F30895FC0180AD91ADEA
:10018000892B19F020E030E802C020E030E082AD99
:1001900093AD892B11F02452304C84AD95AD892B51
:1001A00011F02050304E86AD97AD892B11F02050C4
:1001B000304FE05CFF4F80819181E054F040892B0B
:1001C00011F02050384FEE5BFF4F80819181E25457
:1001D000F040892B11F020503C4FEC5BFF4F8081A9
:1001E0009181E454F040892B11F020503E4FEA5B9E
:1001F000FF4F80819181E654F040892B11F020500F
:100200003F4FE85BFF4F80819181E854F040892B9C
:1002100011F020583F4FE65BFF4F80819181EA54F7
:10022000F040892B11F0205C3F4FE45BFF4F808151
:100230009181EC54F040892B11F0205E3F4FE25B3E
:10024000FF4F80819181EE54F040892B11F0205FA7
:100250003F4FE05BFF4F80819181E055F040892B5B
:1002600011F0285F3F4FEE5AFF4F80819181E25598
:10027000F040892B11F02C5F3F4FEC5AFF4F8081EB
:100280009181E455F040892B11F02E5F3F4FEA5ADF
:10029000FF4F80819181892B11F02F5F3F4FC90162
:1002A0000895BC014091100150911101E0910601A7
:1002B000F091070120E030E00AC081919191681728
:1002C000790719F421E030E007C02F5F3F4F241772
:1002D00035079CF320E030E0C90108958F929F928A
:1002E000AF92BF92CF92DF92EF92FF920F931F9344
:1002F000DF93CF93CDB7DEB7CE50D1400FB6F89491
:10030000DEBF0FBECDBFABE5EA2EF12CEC0EFD1E1D
:10031000F70122E030E0CE01815F9E4F21933193BF
:10032000E817F907D9F75E010894A11CB11CF50183
:1003300022E030E0CE01855A9F4F21933193E81798
:10034000F907D9F7C0900C01D0900D01A601F60174
:1003500021E030E0AEEFBFEF61E070E08281938199
:100360008530910519F4138212820FC087309105F0
:1003700019F47383628309C0069729F480819181FF
:100380009383828302C0B383A2832F5F3F4F329651
:1003900083E02438380711F7A0E0B0E020E030E037
:1003A00080E090E0FA01608171816817790719F4A3
:1003B0002F5F3F4F07C02F30310514F0019759F0E0
:1003C00021E030E011964E5F5F4FF3E0A438BF07A5
:1003D00021F0CB01E7CF61E070E02C9A8D01000F96
:1003E000111F0C0D1D1D40E050E0EBE5CE2ED12C71
:1003F000CC0EDD1E2FC0F8018080918086169706F6
:1004000019F42F5F3F4F22C0C9010497059768F088
:10041000C9010997069798F4FA01EE0FFF1FEC0D3A
:10042000FD1D718360834F5F5F4FFA01EE0FFF1F69
:10043000EC0DFD1D718360834F5F5F4F05C02F3052
:10044000310514F0672B51F021E030E011960E5F7A
:100450001F4FB401F3E0A438BF076CF2F701AE01FF
:10046000455F5E4F80819181029709F478C0329692
:10047000E417F507B9F7F701208131812130310503
:1004800049F482819381892B09F069C0F501318398
:1004900020830CC0232B09F062C0F7018281938175
:1004A000019709F05CC0F5011182108284E090E0B0
:1004B000E80EF91EE2E0F0E0AE0EBF1EE416F5060F
:1004C000D1F6CE0101960E94BD000E945101892BF8
:1004D000E1F12A9A81ED94E290938900809388005B
:1004E00080E090E0A0E0B0E01F9B0BC00196A11D52
:1004F000B11D803AF5E29F07F6E2AF07F0E0BF07D3
:1005000099F788E293E2909389008093880080E0D5
:1005100090E0A0E0B0E000000196A11DB11D803286
:1005200021EA920727E0A20720E0B207A1F7109284
:1005300089001092880080E090E001C000000196E0
:10054000E3E189389E07D1F70AC02B9A80E090E05A
:1005500001C000000196F3E189389F07D1F7C25F1F
:10056000DE4F0FB6F894DEBF0FBECDBFCF91DF9147
:100570001F910F91FF90EF90DF90CF90BF90AF90C1
:100580009F908F90089582E090E090931101809366
:10059000100184E090E00E944C03FC01909307015D
:1005A0008093060189E390E39183808382E399E05D
:1005B0009383828308950E94C3021AB88EE184B99E
:1005C00080E197E2909387008093860080EC80938F
:1005D000800082E18093810088E293E29093890019
:1005E0008093880080E090E0A0E0B0E000000196F9
:1005F000A11DB11D803221EA920727E0A20720E069
:10060000B207A1F7109289001092880010920F0192
:1006100010920E0184E893E00E944C039C018093A9
:100620000C0130930D0110920B0110920A01FC0194
:10063000885F984F11921192E817F907D9F77894CB
:1006400083E08093690081E08DBB789480910A01FA
:1006500090910B0184589340CCF3F89485B1837E3C
:1006600085B90E946E0110920F0110920E01109236
:100670000B0110920A0120910C0130910D0180E0D4
:1006800090E0F901E80FF91F11821082029647E00D
:1006900088309407B1F7D9CFCF93DF93BC01823074
:1006A000910510F462E070E0A0911601B09117017D
:1006B000ED01E0E0F0E040E050E021C08881998168
:1006C0008617970769F48A819B81309719F0938385
:1006D000828304C09093170180931601FE0134C0F9
:1006E0006817790738F44115510519F084179507F3
:1006F00008F4AC01FE018A819B819C01E9012097ED
:10070000E9F641155105A9F1CA01861B970B04971B
:1007100008F4BA01E0E0F0E02AC08D919C911197B5
:1007200084179507F9F46417750781F412968D9173
:100730009C911397309719F09383828304C0909310
:10074000170180931601FD0132964FC0CA01861B26
:10075000970BFD01E80FF91F6193719302978D9339
:100760009C9343C0FD01828193819C01D901109724
:10077000A1F68091140190911501892B41F480918B
:10078000020190910301909315018093140140910F
:100790000401509105014115510541F44DB75EB773
:1007A0008091000190910101481B590B2091140187
:1007B0003091150124173507B0F4CA01821B930B41
:1007C0008617970780F0AB014E5F5F4F8417950740
:1007D00050F0420F531F5093150140931401F9013B
:1007E0006193719302C0E0E0F0E0CF01DF91CF911F
:1007F0000895CF93DF93009709F450C0EC0122973E
:100800001B821A82A0911601B0911701109709F16D
:1008100040E050E0AC17BD0708F1BB83AA83FE019E
:1008200021913191E20FF31FAE17BF0779F48D913B
:100830009C911197280F391F2E5F3F4F39832883D2
:1008400012968D919C9113979B838A834115510534
:1008500071F4D0931701C093160120C012968D91A8
:100860009C911397AD01009711F0DC01D3CFFA01F1
:10087000D383C28321913191E20FF31FCE17DF079B
:1008800069F488819981280F391F2E5F3F4FFA0143
:10089000318320838A819B8193838283DF91CF91EF
:0608A0000895F894FFCF5B
:0608A60020001801000013
:00000001FF
